{
  "contractName": "ERC721Enumerable",
  "abi": [
    {
      "anonymous": false,
      "inputs": [
        {
          "indexed": true,
          "internalType": "address",
          "name": "_owner",
          "type": "address"
        },
        {
          "indexed": true,
          "internalType": "address",
          "name": "_approved",
          "type": "address"
        },
        {
          "indexed": true,
          "internalType": "uint256",
          "name": "_tokenId",
          "type": "uint256"
        }
      ],
      "name": "Approval",
      "type": "event"
    },
    {
      "anonymous": false,
      "inputs": [
        {
          "indexed": true,
          "internalType": "address",
          "name": "_from",
          "type": "address"
        },
        {
          "indexed": true,
          "internalType": "address",
          "name": "_to",
          "type": "address"
        },
        {
          "indexed": true,
          "internalType": "uint256",
          "name": "_tokenId",
          "type": "uint256"
        }
      ],
      "name": "Transfer",
      "type": "event"
    },
    {
      "inputs": [
        {
          "internalType": "address",
          "name": "_to",
          "type": "address"
        },
        {
          "internalType": "uint256",
          "name": "tokenId",
          "type": "uint256"
        }
      ],
      "name": "approve",
      "outputs": [],
      "stateMutability": "nonpayable",
      "type": "function"
    },
    {
      "inputs": [
        {
          "internalType": "address",
          "name": "_owner",
          "type": "address"
        }
      ],
      "name": "balanceOf",
      "outputs": [
        {
          "internalType": "uint256",
          "name": "",
          "type": "uint256"
        }
      ],
      "stateMutability": "view",
      "type": "function"
    },
    {
      "inputs": [
        {
          "internalType": "uint256",
          "name": "_tokenId",
          "type": "uint256"
        }
      ],
      "name": "ownerOf",
      "outputs": [
        {
          "internalType": "address",
          "name": "",
          "type": "address"
        }
      ],
      "stateMutability": "view",
      "type": "function"
    },
    {
      "inputs": [
        {
          "internalType": "bytes4",
          "name": "interfaceID",
          "type": "bytes4"
        }
      ],
      "name": "supportsInterface",
      "outputs": [
        {
          "internalType": "bool",
          "name": "",
          "type": "bool"
        }
      ],
      "stateMutability": "view",
      "type": "function"
    },
    {
      "inputs": [
        {
          "internalType": "address",
          "name": "_from",
          "type": "address"
        },
        {
          "internalType": "address",
          "name": "_to",
          "type": "address"
        },
        {
          "internalType": "uint256",
          "name": "_tokenId",
          "type": "uint256"
        }
      ],
      "name": "transferFrom",
      "outputs": [],
      "stateMutability": "nonpayable",
      "type": "function"
    },
    {
      "inputs": [],
      "name": "totalSupply",
      "outputs": [
        {
          "internalType": "uint256",
          "name": "",
          "type": "uint256"
        }
      ],
      "stateMutability": "view",
      "type": "function"
    },
    {
      "inputs": [
        {
          "internalType": "uint256",
          "name": "_index",
          "type": "uint256"
        }
      ],
      "name": "tokenByIndex",
      "outputs": [
        {
          "internalType": "uint256",
          "name": "",
          "type": "uint256"
        }
      ],
      "stateMutability": "view",
      "type": "function"
    },
    {
      "inputs": [
        {
          "internalType": "address",
          "name": "_owner",
          "type": "address"
        },
        {
          "internalType": "uint256",
          "name": "_index",
          "type": "uint256"
        }
      ],
      "name": "tokenOfOwnerByIndex",
      "outputs": [
        {
          "internalType": "uint256",
          "name": "",
          "type": "uint256"
        }
      ],
      "stateMutability": "view",
      "type": "function"
    }
  ],
  "bytecode": "0x608060405234801561001057600080fd5b506100407f01ffc9a7a5cef8baa21ed3c5c0d7e23accb804b619e9333b597f47a0d84076e261004560201b60201c565b610197565b63ffffffff60e01b817bffffffffffffffffffffffffffffffffffffffffffffffffffffffff191614156100ae576040517f08c379a00000000000000000000000000000000000000000000000000000000081526004016100a590610177565b60405180910390fd5b6001600080837bffffffffffffffffffffffffffffffffffffffffffffffffffffffff19167bffffffffffffffffffffffffffffffffffffffffffffffffffffffff1916815260200190815260200160002060006101000a81548160ff02191690831515021790555050565b600082825260208201905092915050565b7f496e76616c696420696e74657266616365207265717565737400000000000000600082015250565b600061016160198361011a565b915061016c8261012b565b602082019050919050565b6000602082019050818103600083015261019081610154565b9050919050565b61122680620001a76000396000f3fe608060405234801561001057600080fd5b50600436106100885760003560e01c80632f745c591161005b5780632f745c59146101135780634f6ccce7146101435780636352211e1461017357806370a08231146101a357610088565b806301ffc9a71461008d578063095ea7b3146100bd57806318160ddd146100d957806323b872dd146100f7575b600080fd5b6100a760048036038101906100a29190610a35565b6101d3565b6040516100b49190610a7d565b60405180910390f35b6100d760048036038101906100d29190610b2c565b61023a565b005b6100e16103d6565b6040516100ee9190610b7b565b60405180910390f35b610111600480360381019061010c9190610b96565b6103e3565b005b61012d60048036038101906101289190610b2c565b610406565b60405161013a9190610b7b565b60405180910390f35b61015d60048036038101906101589190610be9565b6104b6565b60405161016a9190610b7b565b60405180910390f35b61018d60048036038101906101889190610be9565b610527565b60405161019a9190610c25565b60405180910390f35b6101bd60048036038101906101b89190610c40565b6105d9565b6040516101ca9190610b7b565b60405180910390f35b6000806000837bffffffffffffffffffffffffffffffffffffffffffffffffffffffff19167bffffffffffffffffffffffffffffffffffffffffffffffffffffffff1916815260200190815260200160002060009054906101000a900460ff169050919050565b600061024582610527565b90508073ffffffffffffffffffffffffffffffffffffffff168373ffffffffffffffffffffffffffffffffffffffff1614156102b6576040517f08c379a00000000000000000000000000000000000000000000000000000000081526004016102ad90610cf0565b60405180910390fd5b8073ffffffffffffffffffffffffffffffffffffffff163373ffffffffffffffffffffffffffffffffffffffff1614610324576040517f08c379a000000000000000000000000000000000000000000000000000000000815260040161031b90610d5c565b60405180910390fd5b826003600084815260200190815260200160002060006101000a81548173ffffffffffffffffffffffffffffffffffffffff021916908373ffffffffffffffffffffffffffffffffffffffff160217905550818373ffffffffffffffffffffffffffffffffffffffff168273ffffffffffffffffffffffffffffffffffffffff167f8c5be1e5ebec7d5bd14f71427d1e84f3dd0314c0f7b2291e5b200ac8c7c3b92560405160405180910390a4505050565b6000600480549050905090565b6103ed3382610691565b6103f657600080fd5b610401838383610720565b505050565b6000610411836105d9565b8210610452576040517f08c379a000000000000000000000000000000000000000000000000000000000815260040161044990610dc8565b60405180910390fd5b600660008473ffffffffffffffffffffffffffffffffffffffff1673ffffffffffffffffffffffffffffffffffffffff16815260200190815260200160002082815481106104a3576104a2610de8565b5b9060005260206000200154905092915050565b60006104c06103d6565b8210610501576040517f08c379a00000000000000000000000000000000000000000000000000000000081526004016104f890610e63565b60405180910390fd5b6004828154811061051557610514610de8565b5b90600052602060002001549050919050565b6000806001600084815260200190815260200160002060009054906101000a900473ffffffffffffffffffffffffffffffffffffffff169050600073ffffffffffffffffffffffffffffffffffffffff168173ffffffffffffffffffffffffffffffffffffffff1614156105d0576040517f08c379a00000000000000000000000000000000000000000000000000000000081526004016105c790610ef5565b60405180910390fd5b80915050919050565b60008073ffffffffffffffffffffffffffffffffffffffff168273ffffffffffffffffffffffffffffffffffffffff16141561064a576040517f08c379a000000000000000000000000000000000000000000000000000000000815260040161064190610f87565b60405180910390fd5b600260008373ffffffffffffffffffffffffffffffffffffffff1673ffffffffffffffffffffffffffffffffffffffff168152602001908152602001600020549050919050565b600061069c82610966565b6106db576040517f08c379a00000000000000000000000000000000000000000000000000000000081526004016106d290610ff3565b60405180910390fd5b60006106e683610527565b90508073ffffffffffffffffffffffffffffffffffffffff168473ffffffffffffffffffffffffffffffffffffffff161491505092915050565b600073ffffffffffffffffffffffffffffffffffffffff168273ffffffffffffffffffffffffffffffffffffffff161415610790576040517f08c379a000000000000000000000000000000000000000000000000000000000815260040161078790611085565b60405180910390fd5b8273ffffffffffffffffffffffffffffffffffffffff166107b082610527565b73ffffffffffffffffffffffffffffffffffffffff1614610806576040517f08c379a00000000000000000000000000000000000000000000000000000000081526004016107fd90611117565b60405180910390fd5b6001600260008573ffffffffffffffffffffffffffffffffffffffff1673ffffffffffffffffffffffffffffffffffffffff16815260200190815260200160002060008282546108569190611166565b925050819055506001600260008473ffffffffffffffffffffffffffffffffffffffff1673ffffffffffffffffffffffffffffffffffffffff16815260200190815260200160002060008282546108ad919061119a565b92505081905550816001600083815260200190815260200160002060006101000a81548173ffffffffffffffffffffffffffffffffffffffff021916908373ffffffffffffffffffffffffffffffffffffffff160217905550808273ffffffffffffffffffffffffffffffffffffffff168473ffffffffffffffffffffffffffffffffffffffff167fddf252ad1be2c89b69c2b068fc378daa952ba7f163c4a11628f55a4df523b3ef60405160405180910390a4505050565b6000806001600084815260200190815260200160002060009054906101000a900473ffffffffffffffffffffffffffffffffffffffff169050600073ffffffffffffffffffffffffffffffffffffffff168173ffffffffffffffffffffffffffffffffffffffff161415915050919050565b600080fd5b60007fffffffff0000000000000000000000000000000000000000000000000000000082169050919050565b610a12816109dd565b8114610a1d57600080fd5b50565b600081359050610a2f81610a09565b92915050565b600060208284031215610a4b57610a4a6109d8565b5b6000610a5984828501610a20565b91505092915050565b60008115159050919050565b610a7781610a62565b82525050565b6000602082019050610a926000830184610a6e565b92915050565b600073ffffffffffffffffffffffffffffffffffffffff82169050919050565b6000610ac382610a98565b9050919050565b610ad381610ab8565b8114610ade57600080fd5b50565b600081359050610af081610aca565b92915050565b6000819050919050565b610b0981610af6565b8114610b1457600080fd5b50565b600081359050610b2681610b00565b92915050565b60008060408385031215610b4357610b426109d8565b5b6000610b5185828601610ae1565b9250506020610b6285828601610b17565b9150509250929050565b610b7581610af6565b82525050565b6000602082019050610b906000830184610b6c565b92915050565b600080600060608486031215610baf57610bae6109d8565b5b6000610bbd86828701610ae1565b9350506020610bce86828701610ae1565b9250506040610bdf86828701610b17565b9150509250925092565b600060208284031215610bff57610bfe6109d8565b5b6000610c0d84828501610b17565b91505092915050565b610c1f81610ab8565b82525050565b6000602082019050610c3a6000830184610c16565b92915050565b600060208284031215610c5657610c556109d8565b5b6000610c6484828501610ae1565b91505092915050565b600082825260208201905092915050565b7f4572726f72202d20617070726f76616c20746f2063757272656e74206f776e6560008201527f7200000000000000000000000000000000000000000000000000000000000000602082015250565b6000610cda602183610c6d565b9150610ce582610c7e565b604082019050919050565b60006020820190508181036000830152610d0981610ccd565b9050919050565b7f43757272656e742063616c6c6572206973206e6f7420746865206f776e657200600082015250565b6000610d46601f83610c6d565b9150610d5182610d10565b602082019050919050565b60006020820190508181036000830152610d7581610d39565b9050919050565b7f6f776e657220696e646578206973206f7574206f6620626f756e647300000000600082015250565b6000610db2601c83610c6d565b9150610dbd82610d7c565b602082019050919050565b60006020820190508181036000830152610de181610da5565b9050919050565b7f4e487b7100000000000000000000000000000000000000000000000000000000600052603260045260246000fd5b7f476c6f62616c20696e646578206973206f7574206f6620626f756e6473000000600082015250565b6000610e4d601d83610c6d565b9150610e5882610e17565b602082019050919050565b60006020820190508181036000830152610e7c81610e40565b9050919050565b7f4572726f72206f776e65724f66202d206f776e6572206164647265737320697360008201527f2061203020616464726573730000000000000000000000000000000000000000602082015250565b6000610edf602c83610c6d565b9150610eea82610e83565b604082019050919050565b60006020820190508181036000830152610f0e81610ed2565b9050919050565b7f4572726f722062616c616e63654f66202d206f776e657220616464726573732060008201527f6973206120302061646472657373000000000000000000000000000000000000602082015250565b6000610f71602e83610c6d565b9150610f7c82610f15565b604082019050919050565b60006020820190508181036000830152610fa081610f64565b9050919050565b7f746f6b656e20646f6573206e6f74206578697374730000000000000000000000600082015250565b6000610fdd601583610c6d565b9150610fe882610fa7565b602082019050919050565b6000602082019050818103600083015261100c81610fd0565b9050919050565b7f4572726f72202d205f746f20616464726573732069732061203020616464726560008201527f7373000000000000000000000000000000000000000000000000000000000000602082015250565b600061106f602283610c6d565b915061107a82611013565b604082019050919050565b6000602082019050818103600083015261109e81611062565b9050919050565b7f4572726f72202d205f66726f6d206164647265737320646f65736e74206f776e60008201527f2074686520746f6b656e00000000000000000000000000000000000000000000602082015250565b6000611101602a83610c6d565b915061110c826110a5565b604082019050919050565b60006020820190508181036000830152611130816110f4565b9050919050565b7f4e487b7100000000000000000000000000000000000000000000000000000000600052601160045260246000fd5b600061117182610af6565b915061117c83610af6565b92508282101561118f5761118e611137565b5b828203905092915050565b60006111a582610af6565b91506111b083610af6565b9250827fffffffffffffffffffffffffffffffffffffffffffffffffffffffffffffffff038211156111e5576111e4611137565b5b82820190509291505056fea264697066735822122003118298592e6fba74dbcd61da9749c52edc5e9fdf0f6975108637be9660fea664736f6c634300080b0033",
  "immutableReferences": {},
  "source": "// SPDX-License-Identifier: MIT\r\npragma solidity ^0.8.0;\r\n\r\nimport './ERC721.sol';\r\n\r\ncontract ERC721Enumerable is ERC721 {\r\n    uint256[] private _allTokens;\r\n\r\n    //mapping from tokenId to position in _allTokens array\r\n    mapping(uint256 => uint256) private _allTokensIndex;\r\n\r\n    //mapping of owner to list of all owner token ids\r\n    mapping(address => uint256[]) private _ownedTokens;\r\n\r\n \r\n    //mapping from token ID index of the owner tokens list \r\n    mapping(uint256 => uint256) private _ownedTokensIndex;\r\n\r\n    \r\n    function totalSupply () public view returns (uint256){\r\n        return _allTokens.length;\r\n    }\r\n\r\n    function tokenByIndex(uint256 _index)external view returns (uint256){\r\n        require(_index < totalSupply(),'Global index is out of bounds');\r\n        return _allTokens[_index];\r\n    }\r\n\r\n    function tokenOfOwnerByIndex(address _owner, uint256 _index)external view returns (uint256){\r\n        require(_index < balanceOf(_owner), 'owner index is out of bounds');\r\n        return _ownedTokens[_owner][_index];\r\n    }\r\n\r\n    function _mint (address to, uint256 tokenId) internal override(ERC721) {\r\n        super._mint(to,tokenId);\r\n\r\n        //add token to all tokens     \r\n        _addTokensToAllTokenEnumeration(tokenId);\r\n\r\n        //add tokens to the owner\r\n        _addTokensToOwnerEnumeration(to, tokenId);\r\n    }\r\n\r\n    function _addTokensToAllTokenEnumeration(uint256 tokenId) private{\r\n        _allTokensIndex[tokenId] = _allTokens.length;\r\n        _allTokens.push(tokenId);\r\n    }\r\n\r\n    function _addTokensToOwnerEnumeration(address to, uint256 tokenId)private{\r\n        _ownedTokensIndex[tokenId] = _ownedTokens[to].length;\r\n        _ownedTokens[to].push(tokenId);\r\n        \r\n    }\r\n\r\n    \r\n\r\n}",
  "sourcePath": "C:\\Users\\Usuario\\Documents\\proyects\\ethereum_proyects\\nft marketplace\\nft-marketplace-starter-kit\\src\\contracts\\ERC721Enumerable.sol",
  "compiler": {
    "name": "solc",
    "version": "0.8.11+commit.d7f03943.Emscripten.clang"
  },
  "schemaVersion": "3.4.4",
  "updatedAt": "2022-01-09T22:25:13.673Z",
  "devdoc": {
    "kind": "dev",
    "methods": {
      "supportsInterface(bytes4)": {
        "details": "Interface identification is specified in ERC-165. This function  uses less than 30,000 gas.",
        "params": {
          "interfaceID": "The interface identifier, as specified in ERC-165"
        },
        "returns": {
          "_0": "`true` if the contract implements `interfaceID` and  `interfaceID` is not 0xffffffff, `false` otherwise"
        }
      }
    },
    "version": 1
  },
  "userdoc": {
    "kind": "user",
    "methods": {
      "supportsInterface(bytes4)": {
        "notice": "Query if a contract implements an interface"
      }
    },
    "version": 1
  }
}