{
  "contractName": "ERC721Enumerable",
  "abi": [
    {
      "anonymous": false,
      "inputs": [
        {
          "indexed": true,
          "internalType": "address",
          "name": "from",
          "type": "address"
        },
        {
          "indexed": true,
          "internalType": "address",
          "name": "to",
          "type": "address"
        },
        {
          "indexed": true,
          "internalType": "uint256",
          "name": "tokenId",
          "type": "uint256"
        }
      ],
      "name": "Transfer",
      "type": "event"
    },
    {
      "inputs": [
        {
          "internalType": "address",
          "name": "owner",
          "type": "address"
        }
      ],
      "name": "balanceOf",
      "outputs": [
        {
          "internalType": "uint256",
          "name": "",
          "type": "uint256"
        }
      ],
      "stateMutability": "view",
      "type": "function"
    },
    {
      "inputs": [
        {
          "internalType": "uint256",
          "name": "_tokenId",
          "type": "uint256"
        }
      ],
      "name": "ownerOf",
      "outputs": [
        {
          "internalType": "address",
          "name": "",
          "type": "address"
        }
      ],
      "stateMutability": "view",
      "type": "function"
    },
    {
      "inputs": [],
      "name": "totalSupply",
      "outputs": [
        {
          "internalType": "uint256",
          "name": "",
          "type": "uint256"
        }
      ],
      "stateMutability": "view",
      "type": "function"
    },
    {
      "inputs": [
        {
          "internalType": "uint256",
          "name": "_index",
          "type": "uint256"
        }
      ],
      "name": "tokenByIndex",
      "outputs": [
        {
          "internalType": "uint256",
          "name": "",
          "type": "uint256"
        }
      ],
      "stateMutability": "view",
      "type": "function"
    },
    {
      "inputs": [
        {
          "internalType": "address",
          "name": "_owner",
          "type": "address"
        },
        {
          "internalType": "uint256",
          "name": "_index",
          "type": "uint256"
        }
      ],
      "name": "tokenOfOwnerByIndex",
      "outputs": [
        {
          "internalType": "uint256",
          "name": "",
          "type": "uint256"
        }
      ],
      "stateMutability": "view",
      "type": "function"
    }
  ],
  "bytecode": "0x608060405234801561001057600080fd5b506105b1806100206000396000f3fe608060405234801561001057600080fd5b50600436106100575760003560e01c806318160ddd1461005c5780632f745c591461007a5780634f6ccce7146100aa5780636352211e146100da57806370a082311461010a575b600080fd5b61006461013a565b60405161007191906102d8565b60405180910390f35b610094600480360381019061008f9190610382565b610147565b6040516100a191906102d8565b60405180910390f35b6100c460048036038101906100bf91906103c2565b61014f565b6040516100d191906102d8565b60405180910390f35b6100f460048036038101906100ef91906103c2565b610156565b60405161010191906103fe565b60405180910390f35b610124600480360381019061011f9190610419565b610207565b60405161013191906102d8565b60405180910390f35b6000600280549050905090565b600092915050565b6000919050565b60008060008084815260200190815260200160002060009054906101000a900473ffffffffffffffffffffffffffffffffffffffff169050600073ffffffffffffffffffffffffffffffffffffffff168173ffffffffffffffffffffffffffffffffffffffff1614156101fe576040517f08c379a00000000000000000000000000000000000000000000000000000000081526004016101f5906104c9565b60405180910390fd5b80915050919050565b60008073ffffffffffffffffffffffffffffffffffffffff168273ffffffffffffffffffffffffffffffffffffffff161415610278576040517f08c379a000000000000000000000000000000000000000000000000000000000815260040161026f9061055b565b60405180910390fd5b600160008373ffffffffffffffffffffffffffffffffffffffff1673ffffffffffffffffffffffffffffffffffffffff168152602001908152602001600020549050919050565b6000819050919050565b6102d2816102bf565b82525050565b60006020820190506102ed60008301846102c9565b92915050565b600080fd5b600073ffffffffffffffffffffffffffffffffffffffff82169050919050565b6000610323826102f8565b9050919050565b61033381610318565b811461033e57600080fd5b50565b6000813590506103508161032a565b92915050565b61035f816102bf565b811461036a57600080fd5b50565b60008135905061037c81610356565b92915050565b60008060408385031215610399576103986102f3565b5b60006103a785828601610341565b92505060206103b88582860161036d565b9150509250929050565b6000602082840312156103d8576103d76102f3565b5b60006103e68482850161036d565b91505092915050565b6103f881610318565b82525050565b600060208201905061041360008301846103ef565b92915050565b60006020828403121561042f5761042e6102f3565b5b600061043d84828501610341565b91505092915050565b600082825260208201905092915050565b7f4572726f72206f776e65724f66202d206f776e6572206164647265737320697360008201527f2061203020616464726573730000000000000000000000000000000000000000602082015250565b60006104b3602c83610446565b91506104be82610457565b604082019050919050565b600060208201905081810360008301526104e2816104a6565b9050919050565b7f4572726f722062616c616e63654f66202d206f776e657220616464726573732060008201527f6973206120302061646472657373000000000000000000000000000000000000602082015250565b6000610545602e83610446565b9150610550826104e9565b604082019050919050565b6000602082019050818103600083015261057481610538565b905091905056fea2646970667358221220d3a9927b9f4c7ce2f13ee916d588628d8c131bdef23c987f82d484cd9c2ccd5e64736f6c634300080b0033",
  "immutableReferences": {},
  "source": "// SPDX-License-Identifier: MIT\r\npragma solidity ^0.8.0;\r\n\r\nimport './ERC721.sol';\r\n\r\ncontract ERC721Enumerable is ERC721 {\r\n    uint256[] private _allTokens;\r\n\r\n    //mapping from tokenId to position in _allTokens array\r\n    mapping(uint256 => uint256) private _allTokensIndex;\r\n\r\n    //mapping of owner to list of all owner token ids\r\n    mapping(address => uint256[]) private _ownedTokens;\r\n\r\n \r\n    //mapping from token ID index of the owner tokens list \r\n    mapping(uint256 => uint256) private _ownedTokensIndex;\r\n\r\n\r\n    function totalSupply () external view returns (uint256){\r\n        return _allTokens.length;\r\n    }\r\n\r\n    function tokenByIndex(uint256 _index)external view returns (uint256){\r\n\r\n    }\r\n\r\n    function tokenOfOwnerByIndex(address _owner, uint256 _index)external view returns (uint256){\r\n\r\n    }\r\n\r\n    function _mint (address to, uint256 tokenId) internal override(ERC721) {\r\n        super._mint(to,tokenId);\r\n        //add tokens to the owner\r\n        \r\n\r\n        //add token to all tokens     \r\n         _addTokensToTotalSupply(tokenId);\r\n    }\r\n\r\n    function _addTokensToTotalSupply(uint256 tokenId) private{\r\n        _allTokens.push(tokenId);\r\n    }\r\n\r\n    \r\n\r\n}",
  "sourcePath": "C:\\Users\\Usuario\\Documents\\proyects\\ethereum_proyects\\nft marketplace\\nft-marketplace-starter-kit\\src\\contracts\\ERC721Enumerable.sol",
  "compiler": {
    "name": "solc",
    "version": "0.8.11+commit.d7f03943.Emscripten.clang"
  },
  "schemaVersion": "3.4.4",
  "updatedAt": "2022-01-08T18:29:50.280Z",
  "devdoc": {
    "kind": "dev",
    "methods": {},
    "version": 1
  },
  "userdoc": {
    "kind": "user",
    "methods": {},
    "version": 1
  }
}