{
  "contractName": "KryptoBird",
  "abi": [
    {
      "inputs": [],
      "stateMutability": "nonpayable",
      "type": "constructor"
    },
    {
      "anonymous": false,
      "inputs": [
        {
          "indexed": true,
          "internalType": "address",
          "name": "from",
          "type": "address"
        },
        {
          "indexed": true,
          "internalType": "address",
          "name": "to",
          "type": "address"
        },
        {
          "indexed": true,
          "internalType": "uint256",
          "name": "tokenId",
          "type": "uint256"
        }
      ],
      "name": "Transfer",
      "type": "event"
    },
    {
      "inputs": [
        {
          "internalType": "address",
          "name": "owner",
          "type": "address"
        }
      ],
      "name": "balanceOf",
      "outputs": [
        {
          "internalType": "uint256",
          "name": "",
          "type": "uint256"
        }
      ],
      "stateMutability": "view",
      "type": "function",
      "constant": true
    },
    {
      "inputs": [
        {
          "internalType": "uint256",
          "name": "",
          "type": "uint256"
        }
      ],
      "name": "kryptoBirdz",
      "outputs": [
        {
          "internalType": "string",
          "name": "",
          "type": "string"
        }
      ],
      "stateMutability": "view",
      "type": "function",
      "constant": true
    },
    {
      "inputs": [],
      "name": "name",
      "outputs": [
        {
          "internalType": "string",
          "name": "",
          "type": "string"
        }
      ],
      "stateMutability": "view",
      "type": "function",
      "constant": true
    },
    {
      "inputs": [
        {
          "internalType": "uint256",
          "name": "_tokenId",
          "type": "uint256"
        }
      ],
      "name": "ownerOf",
      "outputs": [
        {
          "internalType": "address",
          "name": "",
          "type": "address"
        }
      ],
      "stateMutability": "view",
      "type": "function",
      "constant": true
    },
    {
      "inputs": [],
      "name": "symbol",
      "outputs": [
        {
          "internalType": "string",
          "name": "",
          "type": "string"
        }
      ],
      "stateMutability": "view",
      "type": "function",
      "constant": true
    },
    {
      "inputs": [
        {
          "internalType": "uint256",
          "name": "_index",
          "type": "uint256"
        }
      ],
      "name": "tokenByIndex",
      "outputs": [
        {
          "internalType": "uint256",
          "name": "",
          "type": "uint256"
        }
      ],
      "stateMutability": "view",
      "type": "function",
      "constant": true
    },
    {
      "inputs": [
        {
          "internalType": "address",
          "name": "_owner",
          "type": "address"
        },
        {
          "internalType": "uint256",
          "name": "_index",
          "type": "uint256"
        }
      ],
      "name": "tokenOfOwnerByIndex",
      "outputs": [
        {
          "internalType": "uint256",
          "name": "",
          "type": "uint256"
        }
      ],
      "stateMutability": "view",
      "type": "function",
      "constant": true
    },
    {
      "inputs": [],
      "name": "totalSupply",
      "outputs": [
        {
          "internalType": "uint256",
          "name": "",
          "type": "uint256"
        }
      ],
      "stateMutability": "view",
      "type": "function",
      "constant": true
    },
    {
      "inputs": [
        {
          "internalType": "string",
          "name": "_kryptoBird",
          "type": "string"
        }
      ],
      "name": "mint",
      "outputs": [],
      "stateMutability": "nonpayable",
      "type": "function"
    }
  ],
  "bytecode": "0x60806040523480156200001157600080fd5b506040518060400160405280600a81526020017f4b727970746f42697264000000000000000000000000000000000000000000008152506040518060400160405280600681526020017f4b424952445a00000000000000000000000000000000000000000000000000008152508181816000908051906020019062000098929190620000bc565b508060019080519060200190620000b1929190620000bc565b5050505050620001d1565b828054620000ca906200019b565b90600052602060002090601f016020900481019282620000ee57600085556200013a565b82601f106200010957805160ff19168380011785556200013a565b828001600101855582156200013a579182015b82811115620001395782518255916020019190600101906200011c565b5b5090506200014991906200014d565b5090565b5b80821115620001685760008160009055506001016200014e565b5090565b7f4e487b7100000000000000000000000000000000000000000000000000000000600052602260045260246000fd5b60006002820490506001821680620001b457607f821691505b60208210811415620001cb57620001ca6200016c565b5b50919050565b61119780620001e16000396000f3fe608060405234801561001057600080fd5b50600436106100935760003560e01c80636352211e116100665780636352211e1461013457806370a082311461016457806393ab6e561461019457806395d89b41146101c4578063d85d3d27146101e257610093565b806306fdde031461009857806318160ddd146100b65780632f745c59146100d45780634f6ccce714610104575b600080fd5b6100a06101fe565b6040516100ad9190610a0a565b60405180910390f35b6100be610290565b6040516100cb9190610a45565b60405180910390f35b6100ee60048036038101906100e99190610afe565b61029d565b6040516100fb9190610a45565b60405180910390f35b61011e60048036038101906101199190610b3e565b6102a5565b60405161012b9190610a45565b60405180910390f35b61014e60048036038101906101499190610b3e565b6102ac565b60405161015b9190610b7a565b60405180910390f35b61017e60048036038101906101799190610b95565b61035e565b60405161018b9190610a45565b60405180910390f35b6101ae60048036038101906101a99190610b3e565b610416565b6040516101bb9190610a0a565b60405180910390f35b6101cc6104c2565b6040516101d99190610a0a565b60405180910390f35b6101fc60048036038101906101f79190610cf7565b610554565b005b60606000805461020d90610d6f565b80601f016020809104026020016040519081016040528092919081815260200182805461023990610d6f565b80156102865780601f1061025b57610100808354040283529160200191610286565b820191906000526020600020905b81548152906001019060200180831161026957829003601f168201915b5050505050905090565b6000600480549050905090565b600092915050565b6000919050565b6000806002600084815260200190815260200160002060009054906101000a900473ffffffffffffffffffffffffffffffffffffffff169050600073ffffffffffffffffffffffffffffffffffffffff168173ffffffffffffffffffffffffffffffffffffffff161415610355576040517f08c379a000000000000000000000000000000000000000000000000000000000815260040161034c90610e13565b60405180910390fd5b80915050919050565b60008073ffffffffffffffffffffffffffffffffffffffff168273ffffffffffffffffffffffffffffffffffffffff1614156103cf576040517f08c379a00000000000000000000000000000000000000000000000000000000081526004016103c690610ea5565b60405180910390fd5b600360008373ffffffffffffffffffffffffffffffffffffffff1673ffffffffffffffffffffffffffffffffffffffff168152602001908152602001600020549050919050565b6008818154811061042657600080fd5b90600052602060002001600091509050805461044190610d6f565b80601f016020809104026020016040519081016040528092919081815260200182805461046d90610d6f565b80156104ba5780601f1061048f576101008083540402835291602001916104ba565b820191906000526020600020905b81548152906001019060200180831161049d57829003601f168201915b505050505081565b6060600180546104d190610d6f565b80601f01602080910402602001604051908101604052809291908181526020018280546104fd90610d6f565b801561054a5780601f1061051f5761010080835404028352916020019161054a565b820191906000526020600020905b81548152906001019060200180831161052d57829003601f168201915b5050505050905090565b6009816040516105649190610f01565b908152602001604051809103902060009054906101000a900460ff16156105c0576040517f08c379a00000000000000000000000000000000000000000000000000000000081526004016105b790610f8a565b60405180910390fd5b6008819080600181540180825580915050600190039060005260206000200160009091909190915090805190602001906105fb9291906108ce565b50600060016008805490506106109190610fd9565b905061061c3382610657565b600160098360405161062e9190610f01565b908152602001604051809103902060006101000a81548160ff0219169083151502179055505050565b610661828261066e565b61066a81610830565b5050565b600073ffffffffffffffffffffffffffffffffffffffff168273ffffffffffffffffffffffffffffffffffffffff1614156106de576040517f08c379a00000000000000000000000000000000000000000000000000000000081526004016106d59061107f565b60405180910390fd5b6106e78161085c565b15610727576040517f08c379a000000000000000000000000000000000000000000000000000000000815260040161071e906110eb565b60405180910390fd5b816002600083815260200190815260200160002060006101000a81548173ffffffffffffffffffffffffffffffffffffffff021916908373ffffffffffffffffffffffffffffffffffffffff1602179055506001600360008473ffffffffffffffffffffffffffffffffffffffff1673ffffffffffffffffffffffffffffffffffffffff16815260200190815260200160002060008282546107c9919061110b565b92505081905550808273ffffffffffffffffffffffffffffffffffffffff16600073ffffffffffffffffffffffffffffffffffffffff167fddf252ad1be2c89b69c2b068fc378daa952ba7f163c4a11628f55a4df523b3ef60405160405180910390a45050565b600481908060018154018082558091505060019003906000526020600020016000909190919091505550565b6000806002600084815260200190815260200160002060009054906101000a900473ffffffffffffffffffffffffffffffffffffffff169050600073ffffffffffffffffffffffffffffffffffffffff168173ffffffffffffffffffffffffffffffffffffffff161415915050919050565b8280546108da90610d6f565b90600052602060002090601f0160209004810192826108fc5760008555610943565b82601f1061091557805160ff1916838001178555610943565b82800160010185558215610943579182015b82811115610942578251825591602001919060010190610927565b5b5090506109509190610954565b5090565b5b8082111561096d576000816000905550600101610955565b5090565b600081519050919050565b600082825260208201905092915050565b60005b838110156109ab578082015181840152602081019050610990565b838111156109ba576000848401525b50505050565b6000601f19601f8301169050919050565b60006109dc82610971565b6109e6818561097c565b93506109f681856020860161098d565b6109ff816109c0565b840191505092915050565b60006020820190508181036000830152610a2481846109d1565b905092915050565b6000819050919050565b610a3f81610a2c565b82525050565b6000602082019050610a5a6000830184610a36565b92915050565b6000604051905090565b600080fd5b600080fd5b600073ffffffffffffffffffffffffffffffffffffffff82169050919050565b6000610a9f82610a74565b9050919050565b610aaf81610a94565b8114610aba57600080fd5b50565b600081359050610acc81610aa6565b92915050565b610adb81610a2c565b8114610ae657600080fd5b50565b600081359050610af881610ad2565b92915050565b60008060408385031215610b1557610b14610a6a565b5b6000610b2385828601610abd565b9250506020610b3485828601610ae9565b9150509250929050565b600060208284031215610b5457610b53610a6a565b5b6000610b6284828501610ae9565b91505092915050565b610b7481610a94565b82525050565b6000602082019050610b8f6000830184610b6b565b92915050565b600060208284031215610bab57610baa610a6a565b5b6000610bb984828501610abd565b91505092915050565b600080fd5b600080fd5b7f4e487b7100000000000000000000000000000000000000000000000000000000600052604160045260246000fd5b610c04826109c0565b810181811067ffffffffffffffff82111715610c2357610c22610bcc565b5b80604052505050565b6000610c36610a60565b9050610c428282610bfb565b919050565b600067ffffffffffffffff821115610c6257610c61610bcc565b5b610c6b826109c0565b9050602081019050919050565b82818337600083830152505050565b6000610c9a610c9584610c47565b610c2c565b905082815260208101848484011115610cb657610cb5610bc7565b5b610cc1848285610c78565b509392505050565b600082601f830112610cde57610cdd610bc2565b5b8135610cee848260208601610c87565b91505092915050565b600060208284031215610d0d57610d0c610a6a565b5b600082013567ffffffffffffffff811115610d2b57610d2a610a6f565b5b610d3784828501610cc9565b91505092915050565b7f4e487b7100000000000000000000000000000000000000000000000000000000600052602260045260246000fd5b60006002820490506001821680610d8757607f821691505b60208210811415610d9b57610d9a610d40565b5b50919050565b7f4572726f72206f776e65724f66202d206f776e6572206164647265737320697360008201527f2061203020616464726573730000000000000000000000000000000000000000602082015250565b6000610dfd602c8361097c565b9150610e0882610da1565b604082019050919050565b60006020820190508181036000830152610e2c81610df0565b9050919050565b7f4572726f722062616c616e63654f66202d206f776e657220616464726573732060008201527f6973206120302061646472657373000000000000000000000000000000000000602082015250565b6000610e8f602e8361097c565b9150610e9a82610e33565b604082019050919050565b60006020820190508181036000830152610ebe81610e82565b9050919050565b600081905092915050565b6000610edb82610971565b610ee58185610ec5565b9350610ef581856020860161098d565b80840191505092915050565b6000610f0d8284610ed0565b915081905092915050565b7f4572726f72202d206b727970746f4269726420616c726561647920657869737460008201527f7300000000000000000000000000000000000000000000000000000000000000602082015250565b6000610f7460218361097c565b9150610f7f82610f18565b604082019050919050565b60006020820190508181036000830152610fa381610f67565b9050919050565b7f4e487b7100000000000000000000000000000000000000000000000000000000600052601160045260246000fd5b6000610fe482610a2c565b9150610fef83610a2c565b92508282101561100257611001610faa565b5b828203905092915050565b7f4552433732313a206d696e74696e6720746f20746865207a65726f206164647260008201527f6573730000000000000000000000000000000000000000000000000000000000602082015250565b600061106960238361097c565b91506110748261100d565b604082019050919050565b600060208201905081810360008301526110988161105c565b9050919050565b7f4552433732313a20746f6b656e20616c7265616479206d696e74656400000000600082015250565b60006110d5601c8361097c565b91506110e08261109f565b602082019050919050565b60006020820190508181036000830152611104816110c8565b9050919050565b600061111682610a2c565b915061112183610a2c565b9250827fffffffffffffffffffffffffffffffffffffffffffffffffffffffffffffffff0382111561115657611155610faa565b5b82820190509291505056fea26469706673582212202a153326d8b7d9c4bb55a79fcb67c4517bfe33cc4fbf62c45a2676148b86806f64736f6c634300080b0033",
  "immutableReferences": {},
  "source": "// SPDX-License-Identifier: MIT\r\npragma solidity ^0.8.0;\r\n\r\nimport './ERC721Connector.sol';\r\n\r\ncontract KryptoBird is ERC721Connector {\r\n\r\n    //array to store our nfts\r\n    string [] public kryptoBirdz;\r\n\r\n    mapping(string => bool) _kryptoBirdzExists;\r\n\r\n    function mint(string memory _kryptoBird) public {\r\n        require(!_kryptoBirdzExists[_kryptoBird], 'Error - kryptoBird already exists');\r\n        // uint _id = KryptoBirdz.push(_kryptoBird); --> deprecated\r\n        kryptoBirdz.push(_kryptoBird);\r\n        uint _id = kryptoBirdz.length -1;\r\n\r\n        //.push no longer returns the length\r\n        _mint(msg.sender, _id);\r\n\r\n        _kryptoBirdzExists[_kryptoBird] = true;\r\n    }\r\n  \r\n    constructor() ERC721Connector('KryptoBird','KBIRDZ')\r\n {}\r\n\r\n\r\n}",
  "sourcePath": "C:\\Users\\Usuario\\Documents\\proyects\\ethereum_proyects\\nft marketplace\\nft-marketplace-starter-kit\\src\\contracts\\KryptoBird.sol",
  "compiler": {
    "name": "solc",
    "version": "0.8.11+commit.d7f03943.Emscripten.clang"
  },
  "schemaVersion": "3.4.4",
  "updatedAt": "2022-01-08T18:29:53.851Z",
  "networkType": "ethereum",
  "devdoc": {
    "kind": "dev",
    "methods": {},
    "version": 1
  },
  "userdoc": {
    "kind": "user",
    "methods": {},
    "version": 1
  }
}